:020000040800F2
:1000000000500020ED0D00086D0D0008710D000876
:10001000750D0008790D00087D0D00080000000036
:10002000000000000000000000000000810D00083A
:10003000850D000800000000890D00088D0D0008E6
:10004000350E0008350E0008350E0008350E000884
:10005000350E0008350E0008350E0008350E000874
:10006000350E0008350E0008350E0008350E000864
:10007000350E0008350E0008350E0008350E000854
:10008000350E0008350E0008350E0008350E000844
:10009000350E0008350E0008350E0008350E000834
:1000A000350E0008350E0008350E0008350E000824
:1000B000350E0008350E0008350E0008350E000814
:1000C000350E0008350E0008350E0008350E000804
:1000D000350E0008350E0008350E0008350E0008F4
:1000E000350E0008350E0008350E0008000000002F
:1000F0000000000000000000000000000000000000
:0C01000000000000000000005FF808F1A3
:10010C0010B5054C237833B9044B13B10448AFF345
:10011C0000800123237010BD0C00002000000000A3
:10012C00800E00080C4B43B10C4810B50C49AFF3D2
:10013C0000800C48036823B910BD0A48036833B922
:10014C007047094B002BF7D0BDE810401847064B01
:10015C00002BF5D0184700BF00000000800E0008EF
:10016C00100000200C000020000000004FF47A73F7
:10017C0070B50D4D0D4A29781268B3FBF1F30646A4
:10018C00B2FBF3F000F080F808B90F2E01D9012072
:10019C0070BD0446024631464FF0FF3000F03EF889
:1001AC006E60204670BD00BF0000002008000020DB
:1001BC00074A08B51368032043F01003136000F0DE
:1001CC001BF80020FFF7D2FF00F026FD002008BD31
:1001DC0000200240034A044B11681B780B44136047
:1001EC00704700BF2800002000000020014B186859
:1001FC00704700BF280000204FF6FF01064A00029E
:10020C00D36800F4E0600B4043F0BF6343F4003369
:10021C000343D360704700BF00ED00E0184B70B48F
:10022C00DC68C4F30224C4F10706042E04F10403B1
:10023C0028BF0426062B17D90125033CA540013DF8
:10024C002A400123B340013B1940A140002841EA58
:10025C0002010CDB090100F16040C9B200F56140FC
:10026C0080F8001370BC704700221446E9E7054B78
:10027C0000F00F000901C9B20344197670BC704735
:10028C0000ED00E0FCEC00E00138B0F1807F0DD215
:10029C0030B4F02500220721054B064C586084F839
:1002AC002350104630BC9A6019607047012070478B
:1002BC0010E000E000ED00E0044A042813680CBFD5
:1002CC0043F0040323F004031360704710E000E0D4
:1002DC00704700BF08B5FFF7FBFF08BD2DE9F04FD5
:1002EC004FF0000885B043466FF01F06DFF8E0E1E1
:1002FC00DFF8E0C1704F009005E00133102B06F1E0
:10030C00040600F08B8001220C689A401440A24233
:10031C00F3D14D68122D00F0A58000F28E80022DD5
:10032C0000F0A78040F28380032D00F09F80112DF8
:10033C0002D1CA6802F10408FF2C72D8009A4FEA65
:10034C00830A914612680F2505FA0AFB22EA0B0272
:10035C0008FA0AFA42EA0A02C9F80020D1F804A005
:10036C001AF0805FC9D0DEF8189023F0030249F030
:10037C000109CEF81890DEF8189002F1804209F0CD
:10038C000109CDF80C9002F5803203F00309DDF879
:10039C000CB04FEA8909D2F808B005FA09F52BEA36
:1003AC00050001900098604579D0444DA84279D061
:1003BC00434D0098A8427AD0424D0098A8420CBFF9
:1003CC004FF0030B4FF0040B0BFA09F901981AF4D8
:1003DC00803F40EA090595603A6803F1010314BFB8
:1003EC002243A2433A607A681AF4003F14BF2243B6
:1003FC00A2437A60BA681AF4801F14BF2243A24346
:10040C00BA60FA681AF4001F14BF144322EA0404F9
:10041C00102BFC6006F104067FF475AF05B0BDE847
:10042C00F08F0098B246426800F104098BE7A5B141
:10043C00012D81D1D1F80C807EE7234885420CD068
:10044C001BD92248854208D000F58030854204D063
:10045C00DFF884904D457FF46FAF8D68BDB94FF0D8
:10046C00040869E7CA6802F10C0865E74FF0000858
:10047C0062E7CA6802F108085EE7DFF860904D4554
:10048C00EBD009F580394D457FF456AFE5E7009880
:10049C00012D0CBF026142614FF008084CE74FF090
:1004AC00000993E74FF0010B0BFA09F98EE74FF0B7
:1004BC00020B0BFA09F989E700040140000C01401A
:1004CC000010014000140140000021100000311008
:1004DC000010024000080140000022100000111022
:1004EC002DE9F041036882B0DD07044630D5AD49F3
:1004FC004A6802F00C02042A00F0FA804A6802F002
:10050C000C02082A00F0F0806368B3F5803F00F01D
:10051C007481002B00F00481B3F5A02F00F0A981A9
:10052C00A04B1A6822F480321A601A6822F48022D6
:10053C001A60FFF75BFE9B4D064605E0FFF756FE83
:10054C00801B642800F217812B689A03F6D5236868
:10055C009F0728D5934A516811F00C0F00F0A98021
:10056C00516801F00C01082900F09F802369002BD1
:10057C0000F0328101228C4B8A4D1A60FFF736FE57
:10058C00064605E0FFF732FE801B022800F2F380DE
:10059C002B689807F6D52B68626923F0F80343EAB9
:1005AC00C2032B6023681A075DD45D073AD57D4BD7
:1005BC00DA69D00000F1A6800125DA6942F0805298
:1005CC00DA61DB6903F080530093009B774B1A6868
:1005DC00D10540F1BF80E368012B00F01481002BA2
:1005EC0000F0CD80052B6F4B1A6A00F04F8122F082
:1005FC0001021A621A6A22F004021A62FFF7F6FD6F
:10060C00684E804641F2883706E0FFF7EFFDA0EB1D
:10061C000800B84200F2AF80336A9B07F5D5002D75
:10062C0040F0F780E369D3B15E4D6A6802F00C02CA
:10063C00082A45D0022B4FF000025D4B00F0EF80F2
:10064C001A60FFF7D3FD2C46054605E0FFF7CEFDFB
:10065C00401B022800F28F8023689B01F6D40020F7
:10066C0002B0BDE8F081A369002B2DD00122514BC3
:10067C004C4D1A60FFF7BAFD064604E0FFF7B6FDD5
:10068C00801B022877D86B6A9B07F7D54A4B4B4ADD
:10069C001B68A2FB03235B0A019300BF019B5A1E3C
:1006AC000192002BF9D123687FE75268D6033FF5FE
:1006BC005DAF3C4A1268950726D52269012A23D0E2
:1006CC00012002B0BDE8F0813A4A364D1360FFF7C5
:1006DC008DFD064604E0FFF789FD801B02284AD8F1
:1006EC006B6A9F07F7D4DEE74A68D0037FF50CAF3F
:1006FC002C4A126891037FF52BAF6268002A7FF4B5
:10070C0027AFDDE7002561E7264960690A6822F01A
:10071C00F80242EAC0020A601A077FF546AFA2E768
:10072C0003F1804303F504331A681D4622F480322A
:10073C001A601A6822F480221A60FFF757FD0646E9
:10074C0004E0FFF753FD801B642814D82B689B032F
:10075C00F7D4FCE61A681E4642F480721A60FFF762
:10076C0045FD07463368DA053FF535AFFFF73EFD2B
:10077C00C01B6428F6D9032002B0BDE8F08103F158
:10078C00804303F504331A6A1E4622F001021A62F2
:10079C001A6A41F2883822F004021A62FFF726FD29
:1007AC00074612E000100240000042420070004078
:1007BC00600042428004424208000020D34D621087
:1007CC00FFF714FDC01B4045D5D8336A9807F7D402
:1007DC00002D3FF427AF1CE0344A354D1360FFF772
:1007EC0005FD064604E0FFF701FD801B0228C2D878
:1007FC002B689907F7D42368D5E62D4A136843F480
:10080C008033136095E62A4A136A43F0010313629E
:10081C00F4E6274AD36923F08053D36102E71A60C8
:10082C00FFF7E4FC064604E0FFF7E0FC801B02281F
:10083C00A1D82B689901F7D4226AB2F5803F2DD04C
:10084C0001251B4B606A5968024321F47411194845
:10085C000A435A6005601C46FFF7C8FC054604E0D5
:10086C00FFF7C4FC401B022885D823689A01F7D5F2
:10087C00F5E603F18043A3F53C331A6842F4802279
:10088C001A601A6842F480321A6052E642F004028E
:10089C001A621A6A42F001021A62AFE66B68A1682A
:1008AC0023F400330B436B60CAE700BF00004242E5
:1008BC00001002406000424270B50126022586B04D
:1008CC00154B0DF1180E0FCB0EE90F00134C8DF8D4
:1008DC0004608DF80550636803F00C02082A0BD1F4
:1008EC00C3F383427244DB0312F8102C07D40C4878
:1008FC0000FB02F006B070BD0A4806B070BD63681C
:10090C000848C3F3404300FB02F0734413F8143C53
:10091C00B0FBF3F006B070BD980E0008001002405A
:10092C0000093D0000127A004E4A136803F00703D9
:10093C008B420BD2136823F007030B43136013682D
:10094C0003F00703994201D00120704703682DE999
:10095C00F0419A0706D5444C8568626822F0F00293
:10096C002A436260DF0706460C4622D542683E4B9E
:10097C00012A1B6872D0022A6AD0990729D53A4DF0
:10098C0041F288386B6823F0030313436B60FFF765
:10099C002DFC73680746012B49D0022B05D151E081
:1009AC00FFF724FCC01B404555D86B6813F00C0FA7
:1009BC00F6D12C4A136803F007039C420CD213683F
:1009CC0023F0070323431360136803F007039C42CF
:1009DC0002D00120BDE8F08133685A0706D52249C0
:1009EC00F0684A6822F4E06202434A601B0707D5AC
:1009FC001D4A3169536823F4605343EAC1035360C1
:100A0C00FFF75AFF184B19495B68194AC3F30313D4
:100A1C00CB5C20FA03F300201360FFF7A7FB002048
:100A2C00BDE8F081FFF7E2FBC01B404513D86B68B3
:100A3C0003F00C03042BF5D1BBE7FFF7D7FBC01B6E
:100A4C00404508D86B6803F00C03082BF5D1B0E7D0
:100A5C00980194D4BDE70320BDE8F0819D038ED4AA
:100A6C00B7E700BF0020024000100240A80E0008AB
:100A7C0008000020014B1868704700BF08000020D8
:100A8C0000283AD0F8B5002390F851200446836230
:100A9C00002A2ED01A46022700210125A668636879
:100AAC00E06833432669034360693343E6690343D3
:100ABC003343206AA66984F851702768034306F40F
:100ACC000070034338681343360C20F04002606A10
:100ADC0006F004060643E06A3A603B607E603861CB
:100AEC00FB69084623F40063FB61616584F851508F
:100AFC00F8BD00F0E1F8A26ACDE70120704700BF15
:100B0C0010B5012102241022002390B006A80694EF
:100B1C000A910B920D93FFF7E3FC00B1FEE703463D
:100B2C000F22014601A802930393049305930192AB
:100B3C00FFF7FAFE044600B1FEE7FFF79BFF084BF8
:100B4C00A3FB00308009FFF79FFB0420FFF7B4FBE9
:100B5C00224621464FF0FF30FFF760FB10B010BD6E
:100B6C00D34D62104FF4827600B585B0FFF720FBB1
:100B7C00FFF7C6FF00214FF400740A25214A224BCF
:100B8C0090695E6040F02000906190691F4E00F00B
:100B9C002000019001989069996040F004009061E8
:100BAC009069D96000F00400029002989069196174
:100BBC0040F0080090619269184602F00802039216
:100BCC00039A1E605961D9611962596299629C61DC
:100BDC00DD62FFF755FF00B1FEE702460C4B0D49F5
:100BEC0018465A609A60DA601A615A619C61DA613F
:100BFC001A625A629A62DD621960FFF741FF00B116
:100C0C00FEE7FEE7001002408400002000300140A7
:100C1C002C00002000380040254B00B59A6983B0A9
:100C2C0042F001029A619A69032002F001020092DB
:100C3C00009ADA6942F08052DA61DB6903F0805382
:100C4C000193019BFFF7D8FA00226FF00B001146BD
:100C5C00FFF7E4FA00226FF00A001146FFF7DEFA04
:100C6C0000226FF009001146FFF7D8FA00226FF04E
:100C7C0004001146FFF7D2FA00226FF00300114670
:100C8C00FFF7CCFA00226FF001001146FFF7C6FA0D
:100C9C0000224FF0FF301146FFF7C0FA054A5368A7
:100CAC0023F0E06343F00073536003B05DF804FB82
:100CBC00001002400000014070B50368234A86B062
:100CCC00934224D0224A934201D006B070BD002436
:100CDC004FF420451F4B02A9DA691F4842F48042A9
:100CEC00DA61DB69039403F480430193019B049460
:100CFC0002954FF48044FFF7F1FA0222032302A974
:100D0C001548029403920593FFF7E8FADDE7A02655
:100D1C00022503240F4B02A99A69104842F4805211
:100D2C009A619B69029603F480530093009B039590
:100D3C000594FFF7D3FA0023402202A90748029238
:100D4C0003930493FFF7CAFABFE700BF00300140DA
:100D5C000038004000100240000C01400008014027
:100D6C00704700BFFEE700BFFEE700BFFEE700BF15
:100D7C00FEE700BF704700BF704700BF704700BF61
:100D8C0008B5FFF727FABDE80840FFF7A3BA00BF84
:100D9C0030B44FF41F054FF000640E4B0E4A196827
:100DAC000E4841F00101196059680A405A601A68EE
:100DBC0022F0847222F480321A601A6822F48022A3
:100DCC001A605A6822F4FE025A609D60846030BC3E
:100DDC00704700BF001002400000FFF800ED00E07B
:100DEC00002103E00B4B5B58435004310A480B4B7A
:100DFC0042189A42F6D30A4A02E0002342F8043B16
:100E0C00084B9A42F9D3FFF7C3FF00F00FF8FFF736
:100E1C00A9FE7047C80E0008000000200C0000203E
:100E2C000C000020DC000020FEE7000070B500255F
:100E3C000C4E0D4CA41BA410A54209D100F01AF8BD
:100E4C0000250A4E0A4CA41BA410A54205D170BD66
:100E5C0056F8253098470135EEE756F82530984777
:100E6C000135F2E7C00E0008C00E0008C00E0008E5
:100E7C00C40E0008F8B500BFF8BC08BC9E4670470D
:0C0E8C00F8B500BFF8BC08BC9E467047DB
:100E980002030405060708090A0B0C0D0E0F1010B3
:100EA8000000000000000000010203040607080912
:080EB800000000000102030428
:040EC00031010008F4
:040EC4000D01000814
:0C0EC800010000001000000000A24A041D
:0400000508000DEDF5
:00000001FF
