:020000040800F2
:10000000005000202D150008A1140008A5140008B8
:10001000A9140008AD140008B11400080000000085
:10002000000000000000000000000000B5140008FF
:10003000B914000800000000BD140008C114000835
:100040007515000875150008751500087515000868
:100050007515000875150008751500087515000858
:100060007515000875150008751500087515000848
:100070007515000875150008751500087515000838
:100080007515000875150008751500087515000828
:100090007515000875150008751500087515000818
:1000A0007515000875150008751500087515000808
:1000B00075150008751500087515000875150008F8
:1000C00075150008751500087515000875150008E8
:1000D000D11400087515000875150008751500087D
:1000E000751500087515000875150008000000005A
:1000F0000000000000000000000000000000000000
:0C01000000000000000000005FF808F1A3
:10010C0010B5054C237833B9044B13B10448AFF345
:10011C0000800123237010BD0C00002000000000A3
:10012C00C01500080C4B43B10C4810B50C49AFF38B
:10013C0000800C48036823B910BD0A48036833B922
:10014C007047094B002BF7D0BDE810401847064B01
:10015C00002BF5D0184700BF00000000C0150008A8
:10016C00100000200C000020000000004FF47A73F7
:10017C0070B50D4D0D4A29781268B3FBF1F30646A4
:10018C00B2FBF3F000F09EF808B90F2E01D9012054
:10019C0070BD0446024631464FF0FF3000F050F877
:1001AC006E60204670BD00BF0000002008000020DB
:1001BC00074A08B51368032043F01003136000F0DE
:1001CC002DF80020FFF7D2FF01F0B8F8002008BD91
:1001DC0000200240034A044B11681B780B44136047
:1001EC00704700BF2800002000000020014B186859
:1001FC00704700BF2800002038B50446FFF7F6FF13
:10020C00631C054602D0044B1B781C44FFF7EEFF21
:10021C00401B8442FAD838BD000000204FF6FF0185
:10022C00064A0002D36800F4E0600B4043F0BF6361
:10023C0043F400330343D360704700BF00ED00E08C
:10024C00184B70B4DC68C4F30224C4F10706042E06
:10025C0004F1040328BF0426062B17D90125033CFF
:10026C00A540013D2A400123B340013B1940A14068
:10027C00002841EA02010CDB090100F16040C9B21F
:10028C0000F5614080F8001370BC704700221446E2
:10029C00E9E7054B00F00F000901C9B203441976D8
:1002AC0070BC704700ED00E0FCEC00E0012300F0B6
:1002BC001F01034A40098B4042F82030704700BFB1
:1002CC0000E100E00138B0F1807F0DD230B4F025B0
:1002DC0000220721054B064C586084F82350104629
:1002EC0030BC9A60196070470120704710E000E044
:1002FC0000ED00E0044A042813680CBF43F004032B
:10030C0023F004031360704710E000E0704700BF57
:10031C0008B5FFF7FBFF08BD38B590F82130022B6C
:10032C0004D0042201248263204638BD03681D4991
:10033C001A688B4222F00E021A601A6822F001022F
:10034C001A6021D0184A93421CD0143293421FD009
:10035C00143293421FD0143293421FD01432934262
:10036C000CBF4FF480134FF08073012100240F4D0C
:10037C00426B6B6080F8211080F8204032B19047BE
:10038C00204638BD1023F0E70123EEE71446CBE7F7
:10039C004FF48073E9E74FF48053E6E74FF4803372
:1003AC00E3E700BF080002401C00024000000240CE
:1003BC002DE9F04F4FF0000885B043466FF01F0653
:1003CC00DFF8E0E1DFF8E0C1704F009005E00133A9
:1003DC00102B06F1040600F08B8001220C689A4069
:1003EC001440A242F3D14D68122D00F0A58000F20A
:1003FC008E80022D00F0A78040F28380032D00F048
:10040C009F80112D02D1CA6802F10408FF2C72D80A
:10041C00009A4FEA830A914612680F2505FA0AFBE7
:10042C0022EA0B0208FA0AFA42EA0A02C9F8002088
:10043C00D1F804A01AF0805FC9D0DEF8189023F030
:10044C00030249F00109CEF81890DEF8189002F179
:10045C00804209F00109CDF80C9002F5803203F0CE
:10046C000309DDF80CB04FEA8909D2F808B005FA97
:10047C0009F52BEA050001900098604579D0444DB0
:10048C00A84279D0434D0098A8427AD0424D0098AA
:10049C00A8420CBF4FF0030B4FF0040B0BFA09F9F9
:1004AC0001981AF4803F40EA090595603A6803F117
:1004BC00010314BF2243A2433A607A681AF4003F46
:1004CC0014BF2243A2437A60BA681AF4801F14BF87
:1004DC002243A243BA60FA681AF4001F14BF1443F3
:1004EC0022EA0404102BFC6006F104067FF475AFBD
:1004FC0005B0BDE8F08F0098B246426800F10409DF
:10050C008BE7A5B1012D81D1D1F80C807EE7234872
:10051C0085420CD01BD92248854208D000F580308A
:10052C00854204D0DFF884904D457FF46FAF8D6821
:10053C00BDB94FF0040869E7CA6802F10C0865E719
:10054C004FF0000862E7CA6802F108085EE7DFF8BE
:10055C0060904D45EBD009F580394D457FF456AF91
:10056C00E5E70098012D0CBF026142614FF00808CD
:10057C004CE74FF0000993E74FF0010B0BFA09F928
:10058C008EE74FF0020B0BFA09F989E700040140E2
:10059C00000C01400010014000140140000021102B
:1005AC000000311000100240000801400000221031
:1005BC00000011102DE9F041036882B0DD070446FC
:1005CC0030D5AD494A6802F00C02042A00F0FA80DA
:1005DC004A6802F00C02082A00F0F0806368B3F558
:1005EC00803F00F07481002B00F00481B3F5A02F44
:1005FC0000F0A981A04B1A6822F480321A601A68A4
:10060C0022F480221A60FFF7F1FD9B4D064605E0AF
:10061C00FFF7ECFD801B642800F217812B689A030E
:10062C00F6D523689F0728D5934A516811F00C0F13
:10063C0000F0A980516801F00C01082900F09F809E
:10064C002369002B00F0328101228C4B8A4D1A60F9
:10065C00FFF7CCFD064605E0FFF7C8FD801B02281E
:10066C0000F2F3802B689807F6D52B68626923F0AB
:10067C00F80343EAC2032B6023681A075DD45D07B5
:10068C003AD57D4BDA69D00000F1A6800125DA69F4
:10069C0042F08052DA61DB6903F080530093009BD7
:1006AC00774B1A68D10540F1BF80E368012B00F04D
:1006BC001481002B00F0CD80052B6F4B1A6A00F0D3
:1006CC004F8122F001021A621A6A22F004021A62A5
:1006DC00FFF78CFD684E804641F2883706E0FFF745
:1006EC0085FDA0EB0800B84200F2AF80336A9B078F
:1006FC00F5D5002D40F0F780E369D3B15E4D6A6803
:10070C0002F00C02082A45D0022B4FF000025D4B80
:10071C0000F0EF801A60FFF769FD2C46054605E0F6
:10072C00FFF764FD401B022800F28F8023689B01B9
:10073C00F6D4002002B0BDE8F081A369002B2DD0C7
:10074C000122514B4C4D1A60FFF750FD064604E058
:10075C00FFF74CFD801B022877D86B6A9B07F7D5F7
:10076C004A4B4B4A1B68A2FB03235B0A019300BF55
:10077C00019B5A1E0192002BF9D123687FE7526826
:10078C00D6033FF55DAF3C4A1268950726D5226922
:10079C00012A23D0012002B0BDE8F0813A4A364D3F
:1007AC001360FFF723FD064604E0FFF71FFD801BD7
:1007BC0002284AD86B6A9F07F7D4DEE74A68D00351
:1007CC007FF50CAF2C4A126891037FF52BAF626852
:1007DC00002A7FF427AFDDE7002561E72649606931
:1007EC000A6822F0F80242EAC0020A601A077FF592
:1007FC0046AFA2E703F1804303F504331A681D46A4
:10080C0022F480321A601A6822F480221A60FFF7F0
:10081C00EDFC064604E0FFF7E9FC801B642814D8C5
:10082C002B689B03F7D4FCE61A681E4642F48072D0
:10083C001A60FFF7DBFC07463368DA053FF535AF86
:10084C00FFF7D4FCC01B6428F6D9032002B0BDE826
:10085C00F08103F1804303F504331A6A1E4622F03B
:10086C0001021A621A6A41F2883822F004021A62F2
:10087C00FFF7BCFC074612E00010024000004242A9
:10088C000070004060004242800442420800002098
:10089C00D34D6210FFF7AAFCC01B4045D5D8336A74
:1008AC009807F7D4002D3FF427AF1CE0344A354DA0
:1008BC001360FFF79BFC064604E0FFF797FC801BD8
:1008CC000228C2D82B689907F7D42368D5E62D4A9D
:1008DC00136843F48033136095E62A4A136A43F095
:1008EC0001031362F4E6274AD36923F08053D361E2
:1008FC0002E71A60FFF77AFC064604E0FFF776FC85
:10090C00801B0228A1D82B689901F7D4226AB2F572
:10091C00803F2DD001251B4B606A5968024321F49E
:10092C00741119480A435A6005601C46FFF75EFCB7
:10093C00054604E0FFF75AFC401B022885D82368C3
:10094C009A01F7D5F5E603F18043A3F53C331A6819
:10095C0042F480221A601A6842F480321A6052E61D
:10096C0042F004021A621A6A42F001021A62AFE6FD
:10097C006B68A16823F400330B436B60CAE700BFBC
:10098C0000004242001002406000424270B5012655
:10099C00022586B0154B0DF1180E0FCB0EE90F008A
:1009AC00134C8DF804608DF80550636803F00C024D
:1009BC00082A0BD1C3F383427244DB0312F8102CC8
:1009CC0007D40C4800FB02F006B070BD0A4806B014
:1009DC0070BD63680848C3F3404300FB02F07344E6
:1009EC0013F8143CB0FBF3F006B070BDD81500083A
:1009FC000010024000093D0000127A004E4A1368B4
:100A0C0003F007038B420BD2136823F007030B434D
:100A1C001360136803F00703994201D0012070475B
:100A2C0003682DE9F0419A0706D5444C8568626845
:100A3C0022F0F0022A436260DF0706460C4622D5FC
:100A4C0042683E4B012A1B6872D0022A6AD0990771
:100A5C0029D53A4D41F288386B6823F003031343D0
:100A6C006B60FFF7C3FB73680746012B49D0022B61
:100A7C0005D151E0FFF7BAFBC01B404555D86B6858
:100A8C0013F00C0FF6D12C4A136803F007039C42A9
:100A9C000CD2136823F0070323431360136803F08D
:100AAC0007039C4202D00120BDE8F08133685A074D
:100ABC0006D52249F0684A6822F4E06202434A6093
:100ACC001B0707D51D4A3169536823F4605343EA69
:100ADC00C1035360FFF75AFF184B19495B68194A59
:100AEC00C3F30313CB5C20FA03F300201360FFF76E
:100AFC003DFB0020BDE8F081FFF778FBC01B4045B3
:100B0C0013D86B6803F00C03042BF5D1BBE7FFF78C
:100B1C006DFBC01B404508D86B6803F00C03082B19
:100B2C00F5D1B0E7980194D4BDE70320BDE8F0817E
:100B3C009D038ED4B7E700BF002002400010024096
:100B4C00F015000808000020014B1868704700BF22
:100B5C00080000202DE9F04180460F4616461D4640
:100B6C00D8F8004001E06B1C0AD1A06837EA0003FA
:100B7C000CBF012000208642F5D10020BDE8F08199
:100B8C003DB1FFF733FB069BC01A8542E8D8D8F875
:100B9C0000406368D8F8042023F0E003B2F5827FAC
:100BAC00636017D0D8F82830B3F5005F08D0012265
:100BBC00002388F8512088F850300320BDE8F081DC
:100BCC004DF6FF72236813402360236843F40053EF
:100BDC002360ECE7D8F80830B3F5004F02D0B3F53A
:100BEC00806FDFD1236823F040032360DAE700BF76
:100BFC002DE9F0430446012085B084F850000F46DF
:100C0C00164699460C9DFFF7F1FA94F85120804650
:100C1C00D2B2012A616811D0B1F5827F09D00220CD
:100C2C000122002384F8512084F8503005B0BDE82F
:100C3C00F083A368002BF2D1042AF0D1002F64D0EA
:100C4C00002E62D0B9F1000F5FD094F851302268B9
:100C5C00012B04BF052384F8513000236365A4F8ED
:100C6C003E90A4F836901068A6634006A4F83C9019
:100C7C002763A4F834902364636403D4136843F0AB
:100C8C0040031360E368B3F5006F40D0002967D1CF
:100C9C0017F8013B1373E38E013B9BB2E3864FF0D5
:100CAC000109E38E9BB21BB9E38F9BB2002B3CD0A6
:100CBC00B9F1000F0FD0E38E9BB263B123689A6831
:100CCC00910708D54FF000093A7801371A73E38E73
:100CDC00013B9BB2E386E38F9BB263B123689A68B6
:100CEC00D20708D54FF00109DB683370E38F4E440F
:100CFC00013B9BB2E3876B1CD3D0FFF777FAA0EBD9
:100D0C0008008542CDD803208AE7012088E7002916
:100D1C0057D0E38E9BB2012B53D04FF00109E38ED9
:100D2C009BB213BBE38F9BB2FBB9CDF800802B4673
:100D3C00012202212046FFF70DFF0028E3D10246D5
:100D4C00CDF800802B4680212046FFF703FF0028BA
:100D5C003FD02022636D01201343636562655FE71A
:100D6C00E38E9BB2012B9AD192E7B9F1000F0FD011
:100D7C00E38E9BB263B123689A68910708D54FF054
:100D8C00000937F8022BDA60E38E013B9BB2E38655
:100D9C00E38F9BB263B123689A68D20708D54FF0F2
:100DAC000109DB6826F8023BE38F013B9BB2E3872A
:100DBC00681CB4D0FFF71AFAA0EB08008542AED835
:100DCC00A1E737F8023BD360E38E013B9BB2E3868D
:100DDC00A3E7A368002B7FF423AF23680390DA68A2
:100DEC0003929B680393039B1AE700BF30B4012561
:100DFC00044690F8510084F85050C0B2A8420ED06E
:100E0C006568B5F5827F05D00220002384F8503048
:100E1C0030BC7047A568002DF6D10428F4D121B35D
:100E2C001AB313B394F851000025012804BF052010
:100E3C0084F85100E06865652163E386A386A263AC
:100E4C00A387E387C8B10F4A0F4B226463642368FE
:100E5C005A6842F0E0025A60186810F040000AD15B
:100E6C001A6842F040021A60CFE70023012084F890
:100E7C00503030BC70470020C7E7044A044B226452
:100E8C006364E4E73510000801100008C90F00087E
:100E9C00910F000830B490F85040012C02D130BCB6
:100EAC000220704730BCFFF7A3BE00BF10B490F80F
:100EBC005040012C02D010BCFFF798BF022010BC90
:100ECC00704700BF704700BF704700BF704700BF3E
:100EDC00642210B50446294B29491B6884B0A1FB38
:100EEC0003135B0A02FB03F30293FFF77FF92168FC
:100EFC004B6823F020034B6002E08B689B0708D4FF
:100F0C00029B5A1E0292002BF7D1636D43F0200313
:100F1C00636500906423002280212046FFF71AFEAF
:100F2C0038B1636D43F020036365636D43F02003B8
:100F3C006365A36833B922680393D36803939368FA
:100F4C000393039B636D63B994F851302046042BD3
:100F5C004FF0010384F851300BD0FFF7B5FF04B00C
:100F6C0010BD0123204684F85130FFF7AFFF04B0C9
:100F7C0010BDFFF7A7FF04B010BD00BF0800002094
:100F8C00F119760510B4026B0168541C04631278D5
:100F9C000A73C28E013A92B2C286C28E92B23AB92A
:100FAC0001684A6822F080024A60C38F9BB20BB181
:100FBC0010BC704710BCFFF78BBF00BF10B4826B26
:100FCC000168541C8463097B1170C28F013A92B280
:100FDC00C287C28F92B23AB901684A6822F06002A5
:100FEC004A60C38E9BB20BB110BC704710BCFFF7AC
:100FFC006FBF00BF016B10B431F8022B0468E260C4
:10100C00C28E0163013A92B2C286C28E92B232B9DA
:10101C00626822F080026260C38F9BB20BB110BC7D
:10102C00704710BCFFF754BF10B40468816BE268C2
:10103C0021F8022BC28F8163013A92B2C287C28F10
:10104C0092B232B9626822F040026260C38E9BB2E7
:10105C000BB110BC704710BCFFF73ABF026830B53B
:10106C005168936885B003F04105012D04464BD0BF
:10107C00980743D413F0600F3ED088063CD55D062C
:10108C000ED594F85100032847D00025606D40F030
:10109C00040060650195D0680190906801900198FA
:1010AC0098060CD50020636D43F001036365039033
:1010BC0093680393136823F040031360039B636DE1
:1010CC00D3B10120536823F0E00353608B0784F8FD
:1010DC0051001ED05368E16C23F00303536021B11F
:1010EC00124B08464B63FFF717F9A36C23B10F4A59
:1010FC0018465A63FFF710F905B030BD0D06B9D587
:10110C00636C20469847F7E74D06B1D5036C9847BA
:10111C00F2E72046FFF7DAFEEEE700230293D368EE
:10112C00029393680293029BE6E700BF3D1100080F
:10113C00002208B5436ADA871846DA86FFF7C6FE3E
:10114C0008BD00BF90F85100704700BF00283AD08E
:10115C00F8B5002390F8512004468362002A2ED063
:10116C001A46022700210125A6686368E06833430C
:10117C002669034360693343E66903433343206ABA
:10118C00A66984F851702768034306F40070034382
:10119C0038681343360C20F04002606A06F00406EF
:1011AC000643E06A3A603B607E603861FB69084642
:1011BC0023F40063FB61616584F85150F8BD00F0C5
:1011CC000DF9A26ACDE70120704700BF10B50121CF
:1011DC0002241022002390B006A806940A910B92C8
:1011EC000D93FFF7E7F900B1FEE703460F22014626
:1011FC0001A802930393049305930192FFF7FEFB5E
:10120C00044600B1FEE7FFF79FFC084BA3FB003040
:10121C008009FFF757F80420FFF76CF822462146A7
:10122C004FF0FF30FFF70CF810B010BDD34D62102B
:10123C0000B53C4B8BB00CCB03920493FEF7B8FF7C
:10124C00FFF7C4FF042000230A26374A374D916963
:10125C00374C41F0200191619169686001F02001E7
:10126C00079107999169284641F0040191619169B0
:10127C00AB6001F00401089108999169EB6041F0B1
:10128C000801916192692B6102F008020992099A96
:10129C002C606B61AB61EB612B626B62AB62EE62DB
:1012AC00FFF754FF00B1FEE703464FF40071214CE9
:1012BC00214A2046A1616360A360E36023616361FE
:1012CC00E36123626362A362E6622260FFF73EFF82
:1012DC0000B1FEE74FF4FA7614E0042305AA03A943
:1012EC002046FFF7E3FD8DF80B009DF80B30012B2A
:1012FC0016D04FF4FA70FEF77FFF2046FFF722FF5F
:10130C008DF80B000423009606AA04A92846FFF7C3
:10131C00C1FD8DF80B009DF80B30012BDDD1FEE7E4
:10132C00FEE700BFE8150008001002408400002012
:10133C00003001402C00002000380040254B00B547
:10134C009A6983B042F001029A619A69032002F013
:10135C0001020092009ADA6942F08052DA61DB698C
:10136C0003F080530193019BFEF758FF00226FF0AE
:10137C000B001146FEF764FF00226FF00A001146C5
:10138C00FEF75EFF00226FF009001146FEF758FFD2
:10139C0000226FF004001146FEF752FF00226FF09E
:1013AC0003001146FEF74CFF00226FF001001146BE
:1013BC00FEF746FF00224FF0FF301146FEF740FFCC
:1013CC00054A536823F0E06343F00073536003B0A5
:1013DC005DF804FB001002400000014070B503688A
:1013EC00274A86B093422CD0264A934201D006B0AD
:1013FC0070BD00244FF42045234B02A9DA69234821
:10140C0042F48042DA61DB69029503F48043019374
:10141C00019B039404944FF48045FEF7C9FF03230A
:10142C00022202A91948039205930295FEF7C0FF08
:10143C00224621462420FEF703FF2420FEF736FF28
:10144C00D5E7A026022503240F4B02A99A69104860
:10145C0042F480529A619B69029603F48053009384
:10146C00009B03950594FEF7A3FF0023402202A9DD
:10147C000748029203930493FEF79AFFB7E700BF65
:10148C00003001400038004000100240000C0140C8
:10149C0000080140704700BFFEE700BFFEE700BF39
:1014AC00FEE700BFFEE700BF704700BF704700BFFC
:1014BC00704700BF08B5FEF78DFEBDE80840FEF78B
:1014CC0027BF00BF0148FFF7C9BD00BF2C0000209B
:1014DC0030B44FF41F054FF000640E4B0E4A1968E0
:1014EC000E4841F00101196059680A405A601A68A7
:1014FC0022F0847222F480321A601A6822F480225C
:10150C001A605A6822F4FE025A609D60846030BCF6
:10151C00704700BF001002400000FFF800ED00E033
:10152C00002103E00B4B5B58435004310A480B4B32
:10153C0042189A42F6D30A4A02E0002342F8043BCE
:10154C00084B9A42F9D3FFF7C3FF00F00FF8FFF7EF
:10155C006FFE704710160008000000200C000020E1
:10156C000C000020DC000020FEE7000070B5002518
:10157C000C4E0D4CA41BA410A54209D100F01AF876
:10158C0000250A4E0A4CA41BA410A54205D170BD1F
:10159C0056F8253098470135EEE756F82530984730
:1015AC000135F2E7081600080816000808160008AE
:1015BC000C160008F8B500BFF8BC08BC9E46704776
:0C15CC00F8B500BFF8BC08BC9E46704794
:1015D80002030405060708090A0B0C0D0E0F10106C
:1015E8001020304001020304000000000000000049
:1015F80001020304060708090000000001020304B1
:0416080031010008A4
:04160C000D010008C4
:0C161000010000001000000000A24A04CD
:040000050800152DAD
:00000001FF
